{
  "contractName": "DappTokenCrowdsale",
  "abi": [
    {
      "inputs": [
        {
          "internalType": "uint256",
          "name": "_rate",
          "type": "uint256"
        },
        {
          "internalType": "address payable",
          "name": "_wallet",
          "type": "address"
        },
        {
          "internalType": "contract IERC20",
          "name": "_token1",
          "type": "address"
        },
        {
          "internalType": "uint256",
          "name": "_cap",
          "type": "uint256"
        },
        {
          "internalType": "uint256",
          "name": "_openingTime",
          "type": "uint256"
        },
        {
          "internalType": "uint256",
          "name": "_closingTime",
          "type": "uint256"
        },
        {
          "internalType": "uint256",
          "name": "_goal",
          "type": "uint256"
        }
      ],
      "stateMutability": "nonpayable",
      "type": "constructor"
    },
    {
      "anonymous": false,
      "inputs": [],
      "name": "CrowdsaleFinalized",
      "type": "event"
    },
    {
      "anonymous": false,
      "inputs": [
        {
          "indexed": false,
          "internalType": "address",
          "name": "account",
          "type": "address"
        }
      ],
      "name": "Paused",
      "type": "event"
    },
    {
      "anonymous": false,
      "inputs": [
        {
          "indexed": false,
          "internalType": "uint256",
          "name": "prevClosingTime",
          "type": "uint256"
        },
        {
          "indexed": false,
          "internalType": "uint256",
          "name": "newClosingTime",
          "type": "uint256"
        }
      ],
      "name": "TimedCrowdsaleExtended",
      "type": "event"
    },
    {
      "anonymous": false,
      "inputs": [
        {
          "indexed": true,
          "internalType": "address",
          "name": "purchaser",
          "type": "address"
        },
        {
          "indexed": true,
          "internalType": "address",
          "name": "beneficiary",
          "type": "address"
        },
        {
          "indexed": false,
          "internalType": "uint256",
          "name": "value",
          "type": "uint256"
        },
        {
          "indexed": false,
          "internalType": "uint256",
          "name": "amount",
          "type": "uint256"
        }
      ],
      "name": "TokensPurchased",
      "type": "event"
    },
    {
      "anonymous": false,
      "inputs": [
        {
          "indexed": false,
          "internalType": "address",
          "name": "account",
          "type": "address"
        }
      ],
      "name": "Unpaused",
      "type": "event"
    },
    {
      "anonymous": false,
      "inputs": [
        {
          "indexed": true,
          "internalType": "address",
          "name": "account",
          "type": "address"
        }
      ],
      "name": "WhitelistAdminAdded",
      "type": "event"
    },
    {
      "anonymous": false,
      "inputs": [
        {
          "indexed": true,
          "internalType": "address",
          "name": "account",
          "type": "address"
        }
      ],
      "name": "WhitelistAdminRemoved",
      "type": "event"
    },
    {
      "anonymous": false,
      "inputs": [
        {
          "indexed": true,
          "internalType": "address",
          "name": "account",
          "type": "address"
        }
      ],
      "name": "WhitelistedAdded",
      "type": "event"
    },
    {
      "anonymous": false,
      "inputs": [
        {
          "indexed": true,
          "internalType": "address",
          "name": "account",
          "type": "address"
        }
      ],
      "name": "WhitelistedRemoved",
      "type": "event"
    },
    {
      "inputs": [
        {
          "internalType": "address",
          "name": "account",
          "type": "address"
        }
      ],
      "name": "addWhitelistAdmin",
      "outputs": [],
      "stateMutability": "nonpayable",
      "type": "function"
    },
    {
      "inputs": [
        {
          "internalType": "address",
          "name": "account",
          "type": "address"
        }
      ],
      "name": "addWhitelisted",
      "outputs": [],
      "stateMutability": "nonpayable",
      "type": "function"
    },
    {
      "inputs": [
        {
          "internalType": "address",
          "name": "account",
          "type": "address"
        }
      ],
      "name": "balanceOf",
      "outputs": [
        {
          "internalType": "uint256",
          "name": "",
          "type": "uint256"
        }
      ],
      "stateMutability": "view",
      "type": "function",
      "constant": true
    },
    {
      "inputs": [],
      "name": "bountiesAirdrops",
      "outputs": [
        {
          "internalType": "uint256",
          "name": "",
          "type": "uint256"
        }
      ],
      "stateMutability": "view",
      "type": "function",
      "constant": true
    },
    {
      "inputs": [
        {
          "internalType": "address",
          "name": "beneficiary",
          "type": "address"
        }
      ],
      "name": "buyTokens",
      "outputs": [],
      "stateMutability": "payable",
      "type": "function",
      "payable": true
    },
    {
      "inputs": [],
      "name": "cap",
      "outputs": [
        {
          "internalType": "uint256",
          "name": "",
          "type": "uint256"
        }
      ],
      "stateMutability": "view",
      "type": "function",
      "constant": true
    },
    {
      "inputs": [],
      "name": "capReached",
      "outputs": [
        {
          "internalType": "bool",
          "name": "",
          "type": "bool"
        }
      ],
      "stateMutability": "view",
      "type": "function",
      "constant": true
    },
    {
      "inputs": [
        {
          "internalType": "address payable",
          "name": "refundee",
          "type": "address"
        }
      ],
      "name": "claimRefund",
      "outputs": [],
      "stateMutability": "nonpayable",
      "type": "function"
    },
    {
      "inputs": [],
      "name": "closingTime",
      "outputs": [
        {
          "internalType": "uint256",
          "name": "",
          "type": "uint256"
        }
      ],
      "stateMutability": "view",
      "type": "function",
      "constant": true
    },
    {
      "inputs": [],
      "name": "companyGeneralFund",
      "outputs": [
        {
          "internalType": "uint256",
          "name": "",
          "type": "uint256"
        }
      ],
      "stateMutability": "view",
      "type": "function",
      "constant": true
    },
    {
      "inputs": [
        {
          "internalType": "address",
          "name": "",
          "type": "address"
        }
      ],
      "name": "contributions",
      "outputs": [
        {
          "internalType": "uint256",
          "name": "",
          "type": "uint256"
        }
      ],
      "stateMutability": "view",
      "type": "function",
      "constant": true
    },
    {
      "inputs": [],
      "name": "finalize",
      "outputs": [],
      "stateMutability": "nonpayable",
      "type": "function"
    },
    {
      "inputs": [],
      "name": "finalized",
      "outputs": [
        {
          "internalType": "bool",
          "name": "",
          "type": "bool"
        }
      ],
      "stateMutability": "view",
      "type": "function",
      "constant": true
    },
    {
      "inputs": [],
      "name": "goal",
      "outputs": [
        {
          "internalType": "uint256",
          "name": "",
          "type": "uint256"
        }
      ],
      "stateMutability": "view",
      "type": "function",
      "constant": true
    },
    {
      "inputs": [],
      "name": "goalReached",
      "outputs": [
        {
          "internalType": "bool",
          "name": "",
          "type": "bool"
        }
      ],
      "stateMutability": "view",
      "type": "function",
      "constant": true
    },
    {
      "inputs": [],
      "name": "hasClosed",
      "outputs": [
        {
          "internalType": "bool",
          "name": "",
          "type": "bool"
        }
      ],
      "stateMutability": "view",
      "type": "function",
      "constant": true
    },
    {
      "inputs": [],
      "name": "interestPayout",
      "outputs": [
        {
          "internalType": "uint256",
          "name": "",
          "type": "uint256"
        }
      ],
      "stateMutability": "view",
      "type": "function",
      "constant": true
    },
    {
      "inputs": [],
      "name": "investorMinCap",
      "outputs": [
        {
          "internalType": "uint256",
          "name": "",
          "type": "uint256"
        }
      ],
      "stateMutability": "view",
      "type": "function",
      "constant": true
    },
    {
      "inputs": [],
      "name": "isOpen",
      "outputs": [
        {
          "internalType": "bool",
          "name": "",
          "type": "bool"
        }
      ],
      "stateMutability": "view",
      "type": "function",
      "constant": true
    },
    {
      "inputs": [
        {
          "internalType": "address",
          "name": "account",
          "type": "address"
        }
      ],
      "name": "isWhitelistAdmin",
      "outputs": [
        {
          "internalType": "bool",
          "name": "",
          "type": "bool"
        }
      ],
      "stateMutability": "view",
      "type": "function",
      "constant": true
    },
    {
      "inputs": [
        {
          "internalType": "address",
          "name": "account",
          "type": "address"
        }
      ],
      "name": "isWhitelisted",
      "outputs": [
        {
          "internalType": "bool",
          "name": "",
          "type": "bool"
        }
      ],
      "stateMutability": "view",
      "type": "function",
      "constant": true
    },
    {
      "inputs": [],
      "name": "openingTime",
      "outputs": [
        {
          "internalType": "uint256",
          "name": "",
          "type": "uint256"
        }
      ],
      "stateMutability": "view",
      "type": "function",
      "constant": true
    },
    {
      "inputs": [],
      "name": "paused",
      "outputs": [
        {
          "internalType": "bool",
          "name": "",
          "type": "bool"
        }
      ],
      "stateMutability": "view",
      "type": "function",
      "constant": true
    },
    {
      "inputs": [],
      "name": "rate",
      "outputs": [
        {
          "internalType": "uint256",
          "name": "",
          "type": "uint256"
        }
      ],
      "stateMutability": "view",
      "type": "function",
      "constant": true
    },
    {
      "inputs": [
        {
          "internalType": "address",
          "name": "account",
          "type": "address"
        }
      ],
      "name": "removeWhitelisted",
      "outputs": [],
      "stateMutability": "nonpayable",
      "type": "function"
    },
    {
      "inputs": [],
      "name": "renounceWhitelistAdmin",
      "outputs": [],
      "stateMutability": "nonpayable",
      "type": "function"
    },
    {
      "inputs": [],
      "name": "renounceWhitelisted",
      "outputs": [],
      "stateMutability": "nonpayable",
      "type": "function"
    },
    {
      "inputs": [],
      "name": "reserve",
      "outputs": [
        {
          "internalType": "uint256",
          "name": "",
          "type": "uint256"
        }
      ],
      "stateMutability": "view",
      "type": "function",
      "constant": true
    },
    {
      "inputs": [],
      "name": "stage",
      "outputs": [
        {
          "internalType": "enum DappTokenCrowdsale.CrowdsaleStage",
          "name": "",
          "type": "uint8"
        }
      ],
      "stateMutability": "view",
      "type": "function",
      "constant": true
    },
    {
      "inputs": [],
      "name": "teamMembersHR",
      "outputs": [
        {
          "internalType": "uint256",
          "name": "",
          "type": "uint256"
        }
      ],
      "stateMutability": "view",
      "type": "function",
      "constant": true
    },
    {
      "inputs": [],
      "name": "token",
      "outputs": [
        {
          "internalType": "contract IERC20",
          "name": "",
          "type": "address"
        }
      ],
      "stateMutability": "view",
      "type": "function",
      "constant": true
    },
    {
      "inputs": [],
      "name": "tokenSalePercentage",
      "outputs": [
        {
          "internalType": "uint256",
          "name": "",
          "type": "uint256"
        }
      ],
      "stateMutability": "view",
      "type": "function",
      "constant": true
    },
    {
      "inputs": [],
      "name": "wallet",
      "outputs": [
        {
          "internalType": "address payable",
          "name": "",
          "type": "address"
        }
      ],
      "stateMutability": "view",
      "type": "function",
      "constant": true
    },
    {
      "inputs": [],
      "name": "weekStage",
      "outputs": [
        {
          "internalType": "enum DappTokenCrowdsale.CrowdsaleWeekStage",
          "name": "",
          "type": "uint8"
        }
      ],
      "stateMutability": "view",
      "type": "function",
      "constant": true
    },
    {
      "inputs": [],
      "name": "weiRaised",
      "outputs": [
        {
          "internalType": "uint256",
          "name": "",
          "type": "uint256"
        }
      ],
      "stateMutability": "view",
      "type": "function",
      "constant": true
    },
    {
      "inputs": [
        {
          "internalType": "address",
          "name": "beneficiary",
          "type": "address"
        }
      ],
      "name": "withdrawTokens",
      "outputs": [],
      "stateMutability": "nonpayable",
      "type": "function"
    },
    {
      "stateMutability": "payable",
      "type": "receive",
      "payable": true
    },
    {
      "inputs": [],
      "name": "isOwner",
      "outputs": [
        {
          "internalType": "bool",
          "name": "",
          "type": "bool"
        }
      ],
      "stateMutability": "view",
      "type": "function",
      "constant": true
    },
    {
      "inputs": [
        {
          "internalType": "address",
          "name": "_beneficiary",
          "type": "address"
        }
      ],
      "name": "getUserContribution",
      "outputs": [
        {
          "internalType": "uint256",
          "name": "",
          "type": "uint256"
        }
      ],
      "stateMutability": "view",
      "type": "function",
      "constant": true
    },
    {
      "inputs": [],
      "name": "stopCrowdsale",
      "outputs": [],
      "stateMutability": "nonpayable",
      "type": "function"
    },
    {
      "inputs": [],
      "name": "pauseCrowdsale",
      "outputs": [],
      "stateMutability": "nonpayable",
      "type": "function"
    },
    {
      "inputs": [],
      "name": "unpauseCrowdsale",
      "outputs": [],
      "stateMutability": "nonpayable",
      "type": "function"
    },
    {
      "inputs": [
        {
          "internalType": "address",
          "name": "beneficiary",
          "type": "address"
        }
      ],
      "name": "whitelistBeneficiary",
      "outputs": [],
      "stateMutability": "nonpayable",
      "type": "function"
    },
    {
      "inputs": [
        {
          "internalType": "address",
          "name": "beneficiary",
          "type": "address"
        }
      ],
      "name": "remveWhitelistedBeneficiary",
      "outputs": [],
      "stateMutability": "nonpayable",
      "type": "function"
    }
  ],
  "bytecode": "0x60806040526713fbe85edc9000006010556012805461ffff19169055601e6015556014601655600a601755600d60185560026019908155601a553480156200004657600080fd5b506040516200398d3803806200398d833981810160405260e08110156200006c57600080fd5b508051602082015160408301516060840151608085015160a086015160c0909601516000805460ff191690559495939492939192909190808383868a8a8a620000be620000b862000405565b62000409565b60016003558262000116576040805162461bcd60e51b815260206004820152601460248201527f43726f776473616c653a20726174652069732030000000000000000000000000604482015290519081900360640190fd5b6001600160a01b0382166200015d5760405162461bcd60e51b8152600401808060200182810382526025815260200180620039686025913960400191505060405180910390fd5b6001600160a01b038116620001a45760405162461bcd60e51b8152600401808060200182810382526024815260200180620039226024913960400191505060405180910390fd5b600692909255600580546001600160a01b039283166001600160a01b031991821617909155600480549290931691161790558062000229576040805162461bcd60e51b815260206004820152601960248201527f43617070656443726f776473616c653a20636170206973203000000000000000604482015290519081900360640190fd5b600855428210156200026d5760405162461bcd60e51b8152600401808060200182810382526033815260200180620038b86033913960400191505060405180910390fd5b818111620002ad5760405162461bcd60e51b8152600401808060200182810382526037815260200180620038eb6037913960400191505060405180910390fd5b600991909155600a55600b805460ff191690558062000313576040805162461bcd60e51b815260206004820152601e60248201527f526566756e6461626c6543726f776473616c653a20676f616c20697320300000604482015290519081900360640190fd5b6200031d6200045b565b6040516200032b9062000557565b6001600160a01b03909116815260405190819003602001906000f08015801562000359573d6000803e3d6000fd5b50600d80546001600160a01b0319166001600160a01b0392909216919091179055600c556040516200038b9062000565565b604051809103906000f080158015620003a8573d6000803e3d6000fd5b50600f80546001600160a01b0319166001600160a01b039290921691909117905583811115620003d757600080fd5b506012805462010000600160b01b031916336201000002179055601391909155601455506200057392505050565b3390565b620004248160016200046a60201b6200104a1790919060201c565b6040516001600160a01b038216907f22380c05984257a1cb900161c713dd71d39e74820f1aea43bd3f1bdd2096129990600090a250565b6005546001600160a01b031690565b620004768282620004ee565b15620004c9576040805162461bcd60e51b815260206004820152601f60248201527f526f6c65733a206163636f756e7420616c72656164792068617320726f6c6500604482015290519081900360640190fd5b6001600160a01b0316600090815260209190915260409020805460ff19166001179055565b60006001600160a01b038216620005375760405162461bcd60e51b8152600401808060200182810382526022815260200180620039466022913960400191505060405180910390fd5b506001600160a01b03166000908152602091909152604090205460ff1690565b610d4f80620027a683390190565b6103c380620034f583390190565b61222380620005836000396000f3fe6080604052600436106102605760003560e01c806372d9b86f11610144578063b3f05b97116100b6578063c040e6b81161007a578063c040e6b814610750578063cd3293de14610775578063d6cd94731461078a578063e24041d31461079f578063ec8ac4d8146107b4578063fc0c546a146107da57610277565b8063b3f05b971461068d578063b7a8807c146106a2578063bb5f747b146106b7578063bb8b2b47146106ea578063bffa55d51461071d57610277565b806390c0741f1161010857806390c0741f146105d3578063979918e414610606578063a8351c031461061b578063ae10d7b514610630578063afbe9fb414610645578063b25d7f541461067857610277565b806372d9b86f1461054c5780637362d9c8146105615780637d3d6522146105945780638091cdb2146105a95780638f32d59b146105be57610277565b806346daa242116101dd5780634c5a628c116101a15780634c5a628c146104945780634f935945146104a9578063507d5954146104be578063521eb273146104d35780635c975abb1461050457806370a082311461051957610277565b806346daa2421461040d57806347535d7b1461042257806349df728c146104375780634b6753bc1461046a5780634bb278f31461047f57610277565b80633af32abf116102245780633af32abf14610347578063401938831461037a5780634042b66f1461038f57806342cbbb3a146103a457806342e94c90146103da57610277565b806310154bad1461027c5780631515bc2b146102af578063291d9549146102d85780632c4e722e1461030b578063355274ea1461033257610277565b36610277576102756102706107ef565b6107f3565b005b600080fd5b34801561028857600080fd5b506102756004803603602081101561029f57600080fd5b50356001600160a01b0316610903565b3480156102bb57600080fd5b506102c461095a565b604080519115158252519081900360200190f35b3480156102e457600080fd5b50610275600480360360208110156102fb57600080fd5b50356001600160a01b0316610962565b34801561031757600080fd5b506103206109b1565b60408051918252519081900360200190f35b34801561033e57600080fd5b506103206109b7565b34801561035357600080fd5b506102c46004803603602081101561036a57600080fd5b50356001600160a01b03166109bd565b34801561038657600080fd5b506103206109d0565b34801561039b57600080fd5b506103206109d6565b3480156103b057600080fd5b506103b96109dc565b604051808260038111156103c957fe5b815260200191505060405180910390f35b3480156103e657600080fd5b50610320600480360360208110156103fd57600080fd5b50356001600160a01b03166109ea565b34801561041957600080fd5b506103206109fc565b34801561042e57600080fd5b506102c4610a02565b34801561044357600080fd5b506102756004803603602081101561045a57600080fd5b50356001600160a01b0316610a1d565b34801561047657600080fd5b50610320610aac565b34801561048b57600080fd5b50610275610ab2565b3480156104a057600080fd5b50610275610b8d565b3480156104b557600080fd5b506102c4610b9f565b3480156104ca57600080fd5b50610275610bb3565b3480156104df57600080fd5b506104e8610c5a565b604080516001600160a01b039092168252519081900360200190f35b34801561051057600080fd5b506102c4610c69565b34801561052557600080fd5b506103206004803603602081101561053c57600080fd5b50356001600160a01b0316610c72565b34801561055857600080fd5b50610275610c8d565b34801561056d57600080fd5b506102756004803603602081101561058457600080fd5b50356001600160a01b0316610d2a565b3480156105a057600080fd5b506102c4610d79565b3480156105b557600080fd5b50610320610d86565b3480156105ca57600080fd5b506102c4610d8c565b3480156105df57600080fd5b50610275600480360360208110156105f657600080fd5b50356001600160a01b0316610da3565b34801561061257600080fd5b50610320610df3565b34801561062757600080fd5b50610275610df9565b34801561063c57600080fd5b50610320610e93565b34801561065157600080fd5b506102756004803603602081101561066857600080fd5b50356001600160a01b0316610e99565b34801561068457600080fd5b50610320610ee9565b34801561069957600080fd5b506102c4610eef565b3480156106ae57600080fd5b50610320610ef8565b3480156106c357600080fd5b506102c4600480360360208110156106da57600080fd5b50356001600160a01b0316610efe565b3480156106f657600080fd5b506103206004803603602081101561070d57600080fd5b50356001600160a01b0316610f0b565b34801561072957600080fd5b506102756004803603602081101561074057600080fd5b50356001600160a01b0316610f26565b34801561075c57600080fd5b50610765611016565b604051808260028111156103c957fe5b34801561078157600080fd5b5061032061101f565b34801561079657600080fd5b50610275611025565b3480156107ab57600080fd5b50610320611035565b610275600480360360208110156107ca57600080fd5b50356001600160a01b03166107f3565b3480156107e657600080fd5b506104e861103b565b3390565b6002600354141561084b576040805162461bcd60e51b815260206004820152601f60248201527f5265656e7472616e637947756172643a207265656e7472616e742063616c6c00604482015290519081900360640190fd5b60026003553461085b82826110cb565b600061086682611133565b600754909150610876908361114a565b60075561088383826111ab565b826001600160a01b03166108956107ef565b6001600160a01b03167f6faf93231a456e552dbc9961f58d9713ee4f2e69d15f1975b050ef0911053a7b8484604051808381526020018281526020019250505060405180910390a36108e783836111b5565b6108ef6111b9565b6108f983836111b5565b5050600160035550565b61091361090e6107ef565b610efe565b61094e5760405162461bcd60e51b81526004018080602001828103825260408152602001806120cf6040913960400191505060405180910390fd5b610957816111c1565b50565b600a54421190565b61096d61090e6107ef565b6109a85760405162461bcd60e51b81526004018080602001828103825260408152602001806120cf6040913960400191505060405180910390fd5b61095781611203565b60065490565b60085490565b60006109ca600283611245565b92915050565b600c5490565b60075490565b601254610100900460ff1681565b60116020526000908152604090205481565b601a5481565b60006009544210158015610a185750600a544211155b905090565b610a25610eef565b610a605760405162461bcd60e51b815260040180806020018281038252602e815260200180611fb4602e913960400191505060405180910390fd5b610a68610d79565b610aa35760405162461bcd60e51b8152600401808060200182810382526031815260200180611fe26031913960400191505060405180910390fd5b610957816112ac565b600a5490565b600b5460ff1615610af45760405162461bcd60e51b815260040180806020018281038252602781526020018061210f6027913960400191505060405180910390fd5b610afc61095a565b610b4d576040805162461bcd60e51b815260206004820181905260248201527f46696e616c697a61626c6543726f776473616c653a206e6f7420636c6f736564604482015290519081900360640190fd5b600b805460ff19166001179055610b626113e3565b6040517f9270cc390c096600a1c17c44345a1ba689fafd99d97487b10cfccf86cf73183690600090a1565b610b9d610b986107ef565b611536565b565b6000600854610bac6109d6565b1015905090565b610bbb610d8c565b610bfa576040805162461bcd60e51b8152602060048201819052602482015260008051602061208d833981519152604482015290519081900360640190fd5b6012546201000090046001600160a01b03163314610c57576040805162461bcd60e51b81526020600482015260156024820152742cb7ba9030b932903737ba103a34329037bbb732b960591b604482015290519081900360640190fd5b33ff5b6005546001600160a01b031690565b60005460ff1690565b6001600160a01b03166000908152600e602052604090205490565b610c95610d8c565b610cd4576040805162461bcd60e51b8152602060048201819052602482015260008051602061208d833981519152604482015290519081900360640190fd5b60005460ff16610d22576040805162461bcd60e51b815260206004820152601460248201527314185d5cd8589b194e881b9bdd081c185d5cd95960621b604482015290519081900360640190fd5b610b9d611578565b610d3561090e6107ef565b610d705760405162461bcd60e51b81526004018080602001828103825260408152602001806120cf6040913960400191505060405180910390fd5b61095781611616565b6000600c54610bac6109d6565b60175481565b6012546201000090046001600160a01b0316331490565b610dab610d8c565b610dea576040805162461bcd60e51b8152602060048201819052602482015260008051602061208d833981519152604482015290519081900360640190fd5b61095781610962565b60185481565b610e01610d8c565b610e40576040805162461bcd60e51b8152602060048201819052602482015260008051602061208d833981519152604482015290519081900360640190fd5b60005460ff1615610e8b576040805162461bcd60e51b815260206004820152601060248201526f14185d5cd8589b194e881c185d5cd95960821b604482015290519081900360640190fd5b610b9d611658565b60195481565b610ea1610d8c565b610ee0576040805162461bcd60e51b8152602060048201819052602482015260008051602061208d833981519152604482015290519081900360640190fd5b61095781610903565b60105481565b600b5460ff1690565b60095490565b60006109ca600183611245565b6001600160a01b031660009081526011602052604090205490565b610f2e610eef565b610f695760405162461bcd60e51b81526004018080602001828103825260228152602001806121a26022913960400191505060405180910390fd5b610f71610d79565b15610fad5760405162461bcd60e51b81526004018080602001828103825260218152602001806121366021913960400191505060405180910390fd5b600d54604080516351cff8d960e01b81526001600160a01b038481166004830152915191909216916351cff8d991602480830192600092919082900301818387803b158015610ffb57600080fd5b505af115801561100f573d6000803e3d6000fd5b5050505050565b60125460ff1681565b60155481565b610b9d6110306107ef565b611203565b60165481565b6004546001600160a01b031690565b6110548282611245565b156110a6576040805162461bcd60e51b815260206004820152601f60248201527f526f6c65733a206163636f756e7420616c72656164792068617320726f6c6500604482015290519081900360640190fd5b6001600160a01b0316600090815260209190915260409020805460ff19166001179055565b6110d36116d9565b6110dd8282611959565b6001600160a01b03821660009081526011602052604081205490611101828461114a565b905060105481101561111257600080fd5b6001600160a01b039093166000908152601160205260409020929092555050565b60006109ca600654836119a790919063ffffffff16565b6000828201838110156111a4576040805162461bcd60e51b815260206004820152601b60248201527f536166654d6174683a206164646974696f6e206f766572666c6f770000000000604482015290519081900360640190fd5b9392505050565b6111b58282611a00565b5050565b610b9d611a0a565b6111cc60028261104a565b6040516001600160a01b038216907fee1504a83b6d4a361f4c1dc78ab59bfa30d6a3b6612c403e86bb01ef2984295f90600090a250565b61120e600282611a12565b6040516001600160a01b038216907f270d9b30cf5b0793bbfd54c9d5b94aeb49462b8148399000265144a8722da6b690600090a250565b60006001600160a01b03821661128c5760405162461bcd60e51b81526004018080602001828103825260228152602001806120ad6022913960400191505060405180910390fd5b506001600160a01b03166000908152602091909152604090205460ff1690565b6112b461095a565b6112ef5760405162461bcd60e51b81526004018080602001828103825260218152602001806121816021913960400191505060405180910390fd5b6001600160a01b0381166000908152600e6020526040902054806113445760405162461bcd60e51b81526004018080602001828103825260388152602001806120346038913960400191505060405180910390fd5b6001600160a01b038083166000908152600e6020526040812055600f541663beabacc861136f61103b565b84846040518463ffffffff1660e01b815260040180846001600160a01b03168152602001836001600160a01b031681526020018281526020019350505050600060405180830381600087803b1580156113c757600080fd5b505af11580156113db573d6000803e3d6000fd5b505050505050565b6113eb610d79565b156114c557600d60009054906101000a90046001600160a01b03166001600160a01b03166343d726d66040518163ffffffff1660e01b8152600401600060405180830381600087803b15801561144057600080fd5b505af1158015611454573d6000803e3d6000fd5b50505050600d60009054906101000a90046001600160a01b03166001600160a01b0316639af6549a6040518163ffffffff1660e01b8152600401600060405180830381600087803b1580156114a857600080fd5b505af11580156114bc573d6000803e3d6000fd5b5050505061152e565b600d60009054906101000a90046001600160a01b03166001600160a01b0316638c52dc416040518163ffffffff1660e01b8152600401600060405180830381600087803b15801561151557600080fd5b505af1158015611529573d6000803e3d6000fd5b505050505b610b9d610b9d565b611541600182611a12565b6040516001600160a01b038216907f0a8eb35e5ca14b3d6f28e4abf2f128dbab231a58b56e89beb5d636115001e16590600090a250565b60005460ff166115c6576040805162461bcd60e51b815260206004820152601460248201527314185d5cd8589b194e881b9bdd081c185d5cd95960621b604482015290519081900360640190fd5b6000805460ff191690557f5db9ee0a495bf2e6ff9c91a7834c1ba4fdd244a5e8aa4e537bd38aeae4b073aa6115f96107ef565b604080516001600160a01b039092168252519081900360200190a1565b61162160018261104a565b6040516001600160a01b038216907f22380c05984257a1cb900161c713dd71d39e74820f1aea43bd3f1bdd2096129990600090a250565b60005460ff16156116a3576040805162461bcd60e51b815260206004820152601060248201526f14185d5cd8589b194e881c185d5cd95960821b604482015290519081900360640190fd5b6000805460ff191660011790557f62e78cea01bee320cd4e420270b5ea74000d11b0c9f74754ebdbfc544b05a2586115f96107ef565b6013546605ba7f6e7000009042108015906116fa575080600f026013540142105b1561171957601280546000919060ff19166001835b021790555061184f565b80600f02601354014210158015611736575080601e026013540142105b1561174e57601280546001919060ff1916828061170f565b80601e0260135401421015801561176757506014544211155b1561184f576012805460ff19166002179055601354601e82020142108015906117965750806025026013540142105b156117b157601280546000919061ff0019166101008361170f565b806025026013540142101580156117ce575080602d026013540142105b156117e957601280546001919061ff0019166101008361170f565b80602d026013540142101580156118065750806034026013540142105b1561182157601280546002919061ff0019166101008361170f565b8060340260135401421015801561183a57506014544211155b1561184f576012805461ff0019166103001790555b600654600060125460ff16600281111561186557fe5b141561187d576064601982025b0481036006556111b5565b600160125460ff16600281111561189057fe5b14156118a157606460148202611872565b600260125460ff1660028111156118b457fe5b14156111b5576000601254610100900460ff1660038111156118d257fe5b14156118e3576064600f8202611872565b6001601254610100900460ff1660038111156118fb57fe5b141561190c576064600a8202611872565b6002601254610100900460ff16600381111561192457fe5b141561193557606460058202611872565b6003601254610100900460ff16600381111561194d57fe5b14156111b55760065550565b611962826109bd565b61199d5760405162461bcd60e51b8152600401808060200182810382526041815260200180611f736041913960600191505060405180910390fd5b6111b58282611a79565b6000826119b6575060006109ca565b828202828482816119c357fe5b04146111a45760405162461bcd60e51b815260040180806020018281038252602181526020018061206c6021913960400191505060405180910390fd5b6111b58282611adc565b610b9d611b2a565b611a1c8282611245565b611a575760405162461bcd60e51b81526004018080602001828103825260218152602001806120136021913960400191505060405180910390fd5b6001600160a01b0316600090815260209190915260409020805460ff19169055565b611a81610a02565b611ad2576040805162461bcd60e51b815260206004820152601860248201527f54696d656443726f776473616c653a206e6f74206f70656e0000000000000000604482015290519081900360640190fd5b6111b58282611b82565b6001600160a01b0382166000908152600e6020526040902054611aff908261114a565b6001600160a01b038084166000908152600e6020526040902091909155600f546111b5911682611bf4565b600d546001600160a01b031663f340fa0134611b446107ef565b6040518363ffffffff1660e01b815260040180826001600160a01b031681526020019150506000604051808303818588803b158015610ffb57600080fd5b611b8c8282611c0b565b600854611ba182611b9b6109d6565b9061114a565b11156111b5576040805162461bcd60e51b815260206004820152601d60248201527f43617070656443726f776473616c653a20636170206578636565646564000000604482015290519081900360640190fd5b6004546111b5906001600160a01b03168383611ca2565b6001600160a01b038216611c505760405162461bcd60e51b815260040180806020018281038252602a815260200180612157602a913960400191505060405180910390fd5b806111b5576040805162461bcd60e51b815260206004820152601960248201527f43726f776473616c653a20776569416d6f756e74206973203000000000000000604482015290519081900360640190fd5b604080516001600160a01b038416602482015260448082018490528251808303909101815260649091019091526020810180516001600160e01b031663a9059cbb60e01b179052611cf4908490611cf9565b505050565b6060611d4e826040518060400160405280602081526020017f5361666545524332303a206c6f772d6c6576656c2063616c6c206661696c6564815250856001600160a01b0316611daa9092919063ffffffff16565b805190915015611cf457808060200190516020811015611d6d57600080fd5b5051611cf45760405162461bcd60e51b815260040180806020018281038252602a8152602001806121c4602a913960400191505060405180910390fd5b6060611db98484600085611dc1565b949350505050565b6060611dcc85611f6c565b611e1d576040805162461bcd60e51b815260206004820152601d60248201527f416464726573733a2063616c6c20746f206e6f6e2d636f6e7472616374000000604482015290519081900360640190fd5b60006060866001600160a01b031685876040518082805190602001908083835b60208310611e5c5780518252601f199092019160209182019101611e3d565b6001836020036101000a03801982511681845116808217855250505050505090500191505060006040518083038185875af1925050503d8060008114611ebe576040519150601f19603f3d011682016040523d82523d6000602084013e611ec3565b606091505b50915091508115611ed7579150611db99050565b805115611ee75780518082602001fd5b8360405162461bcd60e51b81526004018080602001828103825283818151815260200191508051906020019080838360005b83811015611f31578181015183820152602001611f19565b50505050905090810190601f168015611f5e5780820380516001836020036101000a031916815260200191505b509250505060405180910390fd5b3b15159056fe57686974656c69737443726f776473616c653a2062656e656669636961727920646f65736e27742068617665207468652057686974656c697374656420726f6c65526566756e6461626c65506f737444656c697665727943726f776473616c653a206e6f742066696e616c697a6564526566756e6461626c65506f737444656c697665727943726f776473616c653a20676f616c206e6f742072656163686564526f6c65733a206163636f756e7420646f6573206e6f74206861766520726f6c65506f737444656c697665727943726f776473616c653a2062656e6566696369617279206973206e6f742064756520616e7920746f6b656e73536166654d6174683a206d756c7469706c69636174696f6e206f766572666c6f774f776e61626c653a2063616c6c6572206973206e6f7420746865206f776e6572526f6c65733a206163636f756e7420697320746865207a65726f206164647265737357686974656c69737441646d696e526f6c653a2063616c6c657220646f6573206e6f742068617665207468652057686974656c69737441646d696e20726f6c6546696e616c697a61626c6543726f776473616c653a20616c72656164792066696e616c697a6564526566756e6461626c6543726f776473616c653a20676f616c207265616368656443726f776473616c653a2062656e656669636961727920697320746865207a65726f2061646472657373506f737444656c697665727943726f776473616c653a206e6f7420636c6f736564526566756e6461626c6543726f776473616c653a206e6f742066696e616c697a65645361666545524332303a204552433230206f7065726174696f6e20646964206e6f742073756363656564a26469706673582212203aa63236c79841b9ac3f4be0f8ed4e4e68455319eeb7b490e27133c34e8ed36f64736f6c634300060c0033608060405234801561001057600080fd5b50604051610d4f380380610d4f8339818101604052602081101561003357600080fd5b5051600061003f6100fe565b600080546001600160a01b0319166001600160a01b0383169081178255604051929350917f8be0079c531659141344cd1fd0a4f28419497f9722a3daafe3b4186f6b6457e0908290a3506001600160a01b0381166100ce5760405162461bcd60e51b815260040180806020018281038252602d815260200180610d22602d913960400191505060405180910390fd5b6002805460ff196001600160a01b039390931661010002610100600160a81b031990911617919091169055610102565b3390565b610c11806101116000396000f3fe6080604052600436106100a75760003560e01c80638da5cb5b116100645780638da5cb5b146101985780639af6549a146101ad578063c19d93fb146101c2578063e3a9db1a146101f8578063f2fde38b1461023d578063f340fa0114610270576100a7565b806338af3eed146100ac57806343d726d6146100dd57806351cff8d9146100f4578063685ca19414610127578063715018a61461016e5780638c52dc4114610183575b600080fd5b3480156100b857600080fd5b506100c1610296565b604080516001600160a01b039092168252519081900360200190f35b3480156100e957600080fd5b506100f26102aa565b005b34801561010057600080fd5b506100f26004803603602081101561011757600080fd5b50356001600160a01b0316610388565b34801561013357600080fd5b5061015a6004803603602081101561014a57600080fd5b50356001600160a01b03166103d8565b604080519115158252519081900360200190f35b34801561017a57600080fd5b506100f26103f4565b34801561018f57600080fd5b506100f2610496565b3480156101a457600080fd5b506100c1610575565b3480156101b957600080fd5b506100f2610584565b3480156101ce57600080fd5b506101d7610611565b604051808260028111156101e757fe5b815260200191505060405180910390f35b34801561020457600080fd5b5061022b6004803603602081101561021b57600080fd5b50356001600160a01b031661061a565b60408051918252519081900360200190f35b34801561024957600080fd5b506100f26004803603602081101561026057600080fd5b50356001600160a01b0316610635565b6100f26004803603602081101561028657600080fd5b50356001600160a01b031661072d565b60025461010090046001600160a01b031690565b6102b2610785565b6000546001600160a01b03908116911614610302576040805162461bcd60e51b81526020600482018190526024820152600080516020610b8a833981519152604482015290519081900360640190fd5b60006002805460ff169081111561031557fe5b146103515760405162461bcd60e51b8152600401808060200182810382526029815260200180610b616029913960400191505060405180910390fd5b6002805460ff1916811790556040517f088672c3a6e342f7cd94a65ba63b79df24a8973927b4d05d803c44bbf787d12f90600090a1565b610391816103d8565b6103cc5760405162461bcd60e51b8152600401808060200182810382526033815260200180610b2e6033913960400191505060405180910390fd5b6103d581610789565b50565b600060016002805460ff16908111156103ed57fe5b1492915050565b6103fc610785565b6000546001600160a01b0390811691161461044c576040805162461bcd60e51b81526020600482018190526024820152600080516020610b8a833981519152604482015290519081900360640190fd5b600080546040516001600160a01b03909116907f8be0079c531659141344cd1fd0a4f28419497f9722a3daafe3b4186f6b6457e0908390a3600080546001600160a01b0319169055565b61049e610785565b6000546001600160a01b039081169116146104ee576040805162461bcd60e51b81526020600482018190526024820152600080516020610b8a833981519152604482015290519081900360640190fd5b60006002805460ff169081111561050157fe5b1461053d5760405162461bcd60e51b8152600401808060200182810382526032815260200180610baa6032913960400191505060405180910390fd5b6002805460ff191660011790556040517f599d8e5a83cffb867d051598c4d70e805d59802d8081c1c7d6dffc5b6aca2b8990600090a1565b6000546001600160a01b031690565b6002805460ff168181111561059557fe5b146105d15760405162461bcd60e51b8152600401808060200182810382526038815260200180610a6b6038913960400191505060405180910390fd5b6002546040516001600160a01b0361010090920491909116904780156108fc02916000818181858888f193505050501580156103d5573d6000803e3d6000fd5b60025460ff1690565b6001600160a01b031660009081526001602052604090205490565b61063d610785565b6000546001600160a01b0390811691161461068d576040805162461bcd60e51b81526020600482018190526024820152600080516020610b8a833981519152604482015290519081900360640190fd5b6001600160a01b0381166106d25760405162461bcd60e51b8152600401808060200182810382526026815260200180610aa36026913960400191505060405180910390fd5b600080546040516001600160a01b03808516939216917f8be0079c531659141344cd1fd0a4f28419497f9722a3daafe3b4186f6b6457e091a3600080546001600160a01b0319166001600160a01b0392909216919091179055565b60006002805460ff169081111561074057fe5b1461077c5760405162461bcd60e51b815260040180806020018281038252602b815260200180610b03602b913960400191505060405180910390fd5b6103d58161084c565b3390565b610791610785565b6000546001600160a01b039081169116146107e1576040805162461bcd60e51b81526020600482018190526024820152600080516020610b8a833981519152604482015290519081900360640190fd5b6001600160a01b0381166000818152600160205260408120805491905590610809908261091f565b6040805182815290516001600160a01b038416917f7084f5476618d8e60b11ef0d7d3f06914655adb8793e28ff7f018d4c76d505d5919081900360200190a25050565b610854610785565b6000546001600160a01b039081169116146108a4576040805162461bcd60e51b81526020600482018190526024820152600080516020610b8a833981519152604482015290519081900360640190fd5b6001600160a01b03811660009081526001602052604090205434906108c99082610a09565b6001600160a01b038316600081815260016020908152604091829020939093558051848152905191927f2da466a7b24304f47e87fa2e1e5a81b9831ce54fec19055ce277ca2f39ba42c492918290030190a25050565b80471015610974576040805162461bcd60e51b815260206004820152601d60248201527f416464726573733a20696e73756666696369656e742062616c616e6365000000604482015290519081900360640190fd5b6040516000906001600160a01b0384169083908381818185875af1925050503d80600081146109bf576040519150601f19603f3d011682016040523d82523d6000602084013e6109c4565b606091505b5050905080610a045760405162461bcd60e51b815260040180806020018281038252603a815260200180610ac9603a913960400191505060405180910390fd5b505050565b600082820183811015610a63576040805162461bcd60e51b815260206004820152601b60248201527f536166654d6174683a206164646974696f6e206f766572666c6f770000000000604482015290519081900360640190fd5b939250505056fe526566756e64457363726f773a2062656e65666963696172792063616e206f6e6c79207769746864726177207768696c6520636c6f7365644f776e61626c653a206e6577206f776e657220697320746865207a65726f2061646472657373416464726573733a20756e61626c6520746f2073656e642076616c75652c20726563697069656e74206d61792068617665207265766572746564526566756e64457363726f773a2063616e206f6e6c79206465706f736974207768696c6520616374697665436f6e646974696f6e616c457363726f773a207061796565206973206e6f7420616c6c6f77656420746f207769746864726177526566756e64457363726f773a2063616e206f6e6c7920636c6f7365207768696c65206163746976654f776e61626c653a2063616c6c6572206973206e6f7420746865206f776e6572526566756e64457363726f773a2063616e206f6e6c7920656e61626c6520726566756e6473207768696c6520616374697665a2646970667358221220f1f1b5273fdc9ba39848cd3a4447321fe7619bbf035d6b5ce6ee82c8a58e8e5d64736f6c634300060c0033526566756e64457363726f773a2062656e656669636961727920697320746865207a65726f2061646472657373608060405234801561001057600080fd5b50600061001b610076565b600080546001600160a01b0383166001600160a01b0319909116811790915560408051918252519192507f4101e71e974f68df5e9730cc223280b41654676bbb052cdcc735c3337e64d2d9919081900360200190a15061007a565b3390565b61033a806100896000396000f3fe608060405234801561001057600080fd5b50600436106100415760003560e01c80632348238c14610046578063beabacc81461006e578063c6dbdf61146100a4575b600080fd5b61006c6004803603602081101561005c57600080fd5b50356001600160a01b03166100c8565b005b61006c6004803603606081101561008457600080fd5b506001600160a01b038135811691602081013590911690604001356101ba565b6100ac61029b565b604080516001600160a01b039092168252519081900360200190f35b6000546001600160a01b03166100dc6102aa565b6001600160a01b0316146101215760405162461bcd60e51b815260040180806020018281038252602c8152602001806102d9602c913960400191505060405180910390fd5b6001600160a01b0381166101665760405162461bcd60e51b815260040180806020018281038252602a8152602001806102af602a913960400191505060405180910390fd5b600080546001600160a01b0383166001600160a01b0319909116811790915560408051918252517f4101e71e974f68df5e9730cc223280b41654676bbb052cdcc735c3337e64d2d99181900360200190a150565b6000546001600160a01b03166101ce6102aa565b6001600160a01b0316146102135760405162461bcd60e51b815260040180806020018281038252602c8152602001806102d9602c913960400191505060405180910390fd5b826001600160a01b031663a9059cbb83836040518363ffffffff1660e01b815260040180836001600160a01b0316815260200182815260200192505050602060405180830381600087803b15801561026a57600080fd5b505af115801561027e573d6000803e3d6000fd5b505050506040513d602081101561029457600080fd5b5050505050565b6000546001600160a01b031690565b339056fe5365636f6e646172793a206e6577207072696d61727920697320746865207a65726f20616464726573735365636f6e646172793a2063616c6c6572206973206e6f7420746865207072696d617279206163636f756e74a2646970667358221220c3805577b9729436d4dbda36ad0ee90890443ff8915e8a58b89a04c7de1a6b2364736f6c634300060c003354696d656443726f776473616c653a206f70656e696e672074696d65206973206265666f72652063757272656e742074696d6554696d656443726f776473616c653a206f70656e696e672074696d65206973206e6f74206265666f726520636c6f73696e672074696d6543726f776473616c653a20746f6b656e20697320746865207a65726f2061646472657373526f6c65733a206163636f756e7420697320746865207a65726f206164647265737343726f776473616c653a2077616c6c657420697320746865207a65726f2061646472657373",
  "immutableReferences": {},
  "source": "pragma solidity ^0.6.0;\r\n// SPDX-License-Identifier: UNLICENSED\r\n\r\nimport \"./supp_contracts/Crowdsale.sol\";\r\nimport \"./supp_contracts/CappedCrowdsale.sol\";\r\nimport \"./supp_contracts/TimedCrowdsale.sol\";\r\nimport \"./supp_contracts/WhitelistCrowdsale.sol\";\r\nimport \"./supp_contracts/RefundableCrowdsale.sol\";\r\nimport \"./supp_contracts/RefundablePostDeliveryCrowdsale.sol\";\r\nimport \"@openzeppelin/contracts/utils/Pausable.sol\";\r\n\r\ncontract DappTokenCrowdsale is Pausable, Crowdsale, CappedCrowdsale, TimedCrowdsale, WhitelistCrowdsale, RefundablePostDeliveryCrowdsale{\r\n\r\n    // Tracking contributions by an investor\r\n    uint public investorMinCap = 1440000000000000000; // $500 in wei\r\n    mapping(address=>uint) public contributions;\r\n\r\n    // Crowdsale Stages\r\n    enum CrowdsaleStage { PrivateSale, PreSale, PublicSale}\r\n    CrowdsaleStage public stage = CrowdsaleStage.PrivateSale;\r\n\r\n    // Crowdsale week stages\r\n    enum CrowdsaleWeekStage {Week1, Week2, Week3, Week4}\r\n    CrowdsaleWeekStage public weekStage = CrowdsaleWeekStage.Week1;\r\n\r\n    address _owner;\r\n    uint openingTime1;\r\n    uint closingTime1;\r\n\r\n    // Token Distribution Percentage\r\n    uint256 public reserve = 30;\r\n    uint256 public interestPayout = 20;\r\n    uint256 public teamMembersHR = 10;\r\n    uint256 public companyGeneralFund = 13;\r\n    uint256 public bountiesAirdrops = 2;\r\n    uint256 public tokenSalePercentage = 25;\r\n    \r\n    constructor(\r\n        uint256 _rate,    // rate in TKNbits. No of tokens for 1 ether\r\n        address payable _wallet,\r\n        IERC20 _token1,\r\n        uint256 _cap,\r\n        uint256 _openingTime, \r\n        uint256 _closingTime,\r\n        uint256 _goal\r\n    )\r\n        Crowdsale(_rate, _wallet, _token1)\r\n        CappedCrowdsale(_cap)\r\n        TimedCrowdsale(_openingTime, _closingTime)\r\n        RefundableCrowdsale(_goal)\r\n        public\r\n    {\r\n        require(_goal <= _cap);\r\n        _owner = msg.sender;\r\n        openingTime1 = _openingTime;\r\n        closingTime1 = _closingTime;\r\n    }\r\n\r\n    modifier onlyOwner() {\r\n        require(isOwner(), \"Ownable: caller is not the owner\");\r\n        _;\r\n    }\r\n    \r\n    function isOwner() public view returns (bool) {\r\n        return msg.sender == _owner;\r\n    }\r\n\r\n    // Gives back a particular beneficiary's contribution\r\n    function getUserContribution(address _beneficiary) public view returns(uint256) {\r\n        return contributions[_beneficiary];\r\n    }\r\n\r\n    // Updating the Crowdsale stages and rates according to Time\r\n    function seeCrowdsaleStage() internal {\r\n        uint time = 1 days * 24 hours * 60 minutes * 60 seconds;  // a Day's time in seconds;\r\n        if(block.timestamp >= openingTime1 && block.timestamp < (openingTime1 + 15 * time)){\r\n            stage = CrowdsaleStage.PrivateSale;\r\n        } else if(block.timestamp >= (openingTime1 + 15 * time) && block.timestamp < (openingTime1 + 30 * time)){\r\n            stage = CrowdsaleStage.PreSale;\r\n        } else if (block.timestamp >= (openingTime1 + 30 * time) && block.timestamp <= closingTime1) {\r\n            stage = CrowdsaleStage.PublicSale;\r\n            if(block.timestamp >= (openingTime1 + 30 * time) && block.timestamp < (openingTime1 + 37 * time)){\r\n                weekStage = CrowdsaleWeekStage.Week1;\r\n            } else if(block.timestamp >= (openingTime1 + 37 * time) && block.timestamp < (openingTime1 + 45 * time)){\r\n                weekStage = CrowdsaleWeekStage.Week2;\r\n            } else if(block.timestamp >= (openingTime1 + 45 * time) && block.timestamp < (openingTime1 + 52 * time)){\r\n                weekStage = CrowdsaleWeekStage.Week3;\r\n            } else if(block.timestamp >= (openingTime1 + 52 * time) && block.timestamp <= closingTime1){\r\n                weekStage = CrowdsaleWeekStage.Week4;\r\n            }\r\n        }\r\n        \r\n        uint initialRate = _rate; //_rate accessed from Crowdsale\r\n        if(stage == CrowdsaleStage.PrivateSale) {\r\n            _rate = initialRate - (initialRate * 25)/100;                           // 25% discount to be given\r\n        }else if(stage == CrowdsaleStage.PreSale) {\r\n            _rate = initialRate - (initialRate * 20)/100;                           // 20% discount to be given\r\n        }else if(stage == CrowdsaleStage.PublicSale) {\r\n            if(weekStage == CrowdsaleWeekStage.Week1){\r\n                _rate = initialRate - (initialRate * 15)/100;                       // 15% discount to be given\r\n            } else if (weekStage == CrowdsaleWeekStage.Week2){\r\n                _rate = initialRate - (initialRate * 10)/100;                       // 10% discount to be given\r\n            } else if (weekStage == CrowdsaleWeekStage.Week3) {\r\n                _rate = initialRate - (initialRate * 5)/100;                        // 5% discount to be given\r\n            } else if (weekStage == CrowdsaleWeekStage.Week4) {\r\n                _rate = initialRate;                                                // 0% discount to be given\r\n            }\r\n        }\r\n    }\r\n\r\n\r\n    // Keeping track and updating beneficiary's contributions and ensuring that they are above $500\r\n    function _preValidatePurchase(address beneficiary, uint256 weiAmount) internal override(Crowdsale, CappedCrowdsale, TimedCrowdsale, WhitelistCrowdsale) {\r\n        seeCrowdsaleStage(); // Calling this to check the Crowdsale stage to update _rate.\r\n        super._preValidatePurchase(beneficiary, weiAmount);\r\n        uint256 existingContribution = contributions[beneficiary];\r\n        uint256 newContribution = existingContribution.add(weiAmount);\r\n        require(newContribution >= investorMinCap);  // ensuring the total contribution made is greater than the minimum contribution required of the investor to make\r\n        contributions[beneficiary] = newContribution;\r\n    }\r\n    \r\n    function _forwardFunds() internal override(Crowdsale, RefundablePostDeliveryCrowdsale) {\r\n        super._forwardFunds();\r\n    }\r\n\r\n    function _processPurchase(address beneficiary, uint256 tokenAmount) internal override(Crowdsale, RefundablePostDeliveryCrowdsale) {\r\n        super._processPurchase(beneficiary, tokenAmount);\r\n    }\r\n\r\n    // Function to stop the crowdsale\r\n    function stopCrowdsale() public onlyOwner{\r\n        require(msg.sender == _owner, \"You are not the owner\");\r\n        selfdestruct(msg.sender);\r\n    }\r\n\r\n    // Function to pause the crowdsale\r\n    function pauseCrowdsale() public onlyOwner whenNotPaused{\r\n        super._pause();\r\n    }\r\n\r\n    // Function to unpause the crowdsale\r\n    function unpauseCrowdsale() public onlyOwner whenPaused{\r\n        super._unpause();\r\n    }\r\n\r\n    // Function to whitelist a beneficiary\r\n    function whitelistBeneficiary(address beneficiary) public onlyOwner {\r\n        addWhitelisted(beneficiary);\r\n    }\r\n\r\n    // Function to remove whitelisted beneficiary\r\n    function remveWhitelistedBeneficiary(address beneficiary) public onlyOwner {\r\n        removeWhitelisted(beneficiary);\r\n    }\r\n\r\n}",
  "sourcePath": "C:/Users/Pradhumnya/Desktop/ico/contracts/DappTokenCrowdsale.sol",
  "compiler": {
    "name": "solc",
    "version": "0.6.12+commit.27d51765.Emscripten.clang"
  },
  "schemaVersion": "3.2.5",
  "updatedAt": "2020-09-28T19:43:58.055Z",
  "networkType": "ethereum",
  "devdoc": {
    "kind": "dev",
    "methods": {
      "balanceOf(address)": {
        "returns": {
          "_0": "the balance of an account."
        }
      },
      "buyTokens(address)": {
        "details": "low level token purchase ***DO NOT OVERRIDE*** This function has a non-reentrancy guard, so it shouldn't be called by another `nonReentrant` function.",
        "params": {
          "beneficiary": "Recipient of the token purchase"
        }
      },
      "cap()": {
        "returns": {
          "_0": "the cap of the crowdsale."
        }
      },
      "capReached()": {
        "details": "Checks whether the cap has been reached.",
        "returns": {
          "_0": "Whether the cap was reached"
        }
      },
      "claimRefund(address)": {
        "details": "Investors can claim refunds here if crowdsale is unsuccessful.",
        "params": {
          "refundee": "Whose refund will be claimed."
        }
      },
      "closingTime()": {
        "returns": {
          "_0": "the crowdsale closing time."
        }
      },
      "finalize()": {
        "details": "Must be called after crowdsale ends, to do some extra finalization work. Calls the contract's finalization function."
      },
      "finalized()": {
        "returns": {
          "_0": "true if the crowdsale is finalized, false otherwise."
        }
      },
      "goal()": {
        "returns": {
          "_0": "minimum amount of funds to be raised in wei."
        }
      },
      "goalReached()": {
        "details": "Checks whether funding goal was reached.",
        "returns": {
          "_0": "Whether funding goal was reached"
        }
      },
      "hasClosed()": {
        "details": "Checks whether the period in which the crowdsale is open has already elapsed.",
        "returns": {
          "_0": "Whether crowdsale period has elapsed"
        }
      },
      "isOpen()": {
        "returns": {
          "_0": "true if the crowdsale is open, false otherwise."
        }
      },
      "openingTime()": {
        "returns": {
          "_0": "the crowdsale opening time."
        }
      },
      "paused()": {
        "details": "Returns true if the contract is paused, and false otherwise."
      },
      "rate()": {
        "returns": {
          "_0": "the number of token units a buyer gets per wei."
        }
      },
      "token()": {
        "returns": {
          "_0": "the token being sold."
        }
      },
      "wallet()": {
        "returns": {
          "_0": "the address where funds are collected."
        }
      },
      "weiRaised()": {
        "returns": {
          "_0": "the amount of wei raised."
        }
      },
      "withdrawTokens(address)": {
        "details": "Withdraw tokens only after crowdsale ends.",
        "params": {
          "beneficiary": "Whose tokens will be withdrawn."
        }
      }
    },
    "version": 1
  },
  "userdoc": {
    "events": {
      "TimedCrowdsaleExtended(uint256,uint256)": {
        "notice": "Event for crowdsale extending"
      },
      "TokensPurchased(address,address,uint256,uint256)": {
        "notice": "Event for token purchase logging"
      }
    },
    "kind": "user",
    "methods": {},
    "version": 1
  }
}