{
  "contractName": "DappToken",
  "abi": [
    {
      "inputs": [
        {
          "internalType": "address",
          "name": "_reserveAddress",
          "type": "address"
        },
        {
          "internalType": "address",
          "name": "_interestPayoutAddress",
          "type": "address"
        },
        {
          "internalType": "address",
          "name": "_teamMembersHRAddress",
          "type": "address"
        },
        {
          "internalType": "address",
          "name": "_companyGeneralFundAddress",
          "type": "address"
        },
        {
          "internalType": "address",
          "name": "_bountiesAirdropsAddress",
          "type": "address"
        }
      ],
      "stateMutability": "nonpayable",
      "type": "constructor"
    },
    {
      "anonymous": false,
      "inputs": [
        {
          "indexed": true,
          "internalType": "address",
          "name": "owner",
          "type": "address"
        },
        {
          "indexed": true,
          "internalType": "address",
          "name": "spender",
          "type": "address"
        },
        {
          "indexed": false,
          "internalType": "uint256",
          "name": "value",
          "type": "uint256"
        }
      ],
      "name": "Approval",
      "type": "event"
    },
    {
      "anonymous": false,
      "inputs": [
        {
          "indexed": false,
          "internalType": "address",
          "name": "account",
          "type": "address"
        }
      ],
      "name": "Paused",
      "type": "event"
    },
    {
      "anonymous": false,
      "inputs": [
        {
          "indexed": true,
          "internalType": "address",
          "name": "from",
          "type": "address"
        },
        {
          "indexed": true,
          "internalType": "address",
          "name": "to",
          "type": "address"
        },
        {
          "indexed": false,
          "internalType": "uint256",
          "name": "value",
          "type": "uint256"
        }
      ],
      "name": "Transfer",
      "type": "event"
    },
    {
      "anonymous": false,
      "inputs": [
        {
          "indexed": false,
          "internalType": "address",
          "name": "account",
          "type": "address"
        }
      ],
      "name": "Unpaused",
      "type": "event"
    },
    {
      "inputs": [
        {
          "internalType": "address",
          "name": "owner",
          "type": "address"
        },
        {
          "internalType": "address",
          "name": "spender",
          "type": "address"
        }
      ],
      "name": "allowance",
      "outputs": [
        {
          "internalType": "uint256",
          "name": "",
          "type": "uint256"
        }
      ],
      "stateMutability": "view",
      "type": "function",
      "constant": true
    },
    {
      "inputs": [
        {
          "internalType": "address",
          "name": "spender",
          "type": "address"
        },
        {
          "internalType": "uint256",
          "name": "amount",
          "type": "uint256"
        }
      ],
      "name": "approve",
      "outputs": [
        {
          "internalType": "bool",
          "name": "",
          "type": "bool"
        }
      ],
      "stateMutability": "nonpayable",
      "type": "function"
    },
    {
      "inputs": [
        {
          "internalType": "address",
          "name": "account",
          "type": "address"
        }
      ],
      "name": "balanceOf",
      "outputs": [
        {
          "internalType": "uint256",
          "name": "",
          "type": "uint256"
        }
      ],
      "stateMutability": "view",
      "type": "function",
      "constant": true
    },
    {
      "inputs": [],
      "name": "decimals",
      "outputs": [
        {
          "internalType": "uint8",
          "name": "",
          "type": "uint8"
        }
      ],
      "stateMutability": "view",
      "type": "function",
      "constant": true
    },
    {
      "inputs": [
        {
          "internalType": "address",
          "name": "spender",
          "type": "address"
        },
        {
          "internalType": "uint256",
          "name": "subtractedValue",
          "type": "uint256"
        }
      ],
      "name": "decreaseAllowance",
      "outputs": [
        {
          "internalType": "bool",
          "name": "",
          "type": "bool"
        }
      ],
      "stateMutability": "nonpayable",
      "type": "function"
    },
    {
      "inputs": [
        {
          "internalType": "address",
          "name": "spender",
          "type": "address"
        },
        {
          "internalType": "uint256",
          "name": "addedValue",
          "type": "uint256"
        }
      ],
      "name": "increaseAllowance",
      "outputs": [
        {
          "internalType": "bool",
          "name": "",
          "type": "bool"
        }
      ],
      "stateMutability": "nonpayable",
      "type": "function"
    },
    {
      "inputs": [],
      "name": "name",
      "outputs": [
        {
          "internalType": "string",
          "name": "",
          "type": "string"
        }
      ],
      "stateMutability": "view",
      "type": "function",
      "constant": true
    },
    {
      "inputs": [],
      "name": "paused",
      "outputs": [
        {
          "internalType": "bool",
          "name": "",
          "type": "bool"
        }
      ],
      "stateMutability": "view",
      "type": "function",
      "constant": true
    },
    {
      "inputs": [],
      "name": "symbol",
      "outputs": [
        {
          "internalType": "string",
          "name": "",
          "type": "string"
        }
      ],
      "stateMutability": "view",
      "type": "function",
      "constant": true
    },
    {
      "inputs": [],
      "name": "totalSupply",
      "outputs": [
        {
          "internalType": "uint256",
          "name": "",
          "type": "uint256"
        }
      ],
      "stateMutability": "view",
      "type": "function",
      "constant": true
    },
    {
      "inputs": [
        {
          "internalType": "address",
          "name": "recipient",
          "type": "address"
        },
        {
          "internalType": "uint256",
          "name": "amount",
          "type": "uint256"
        }
      ],
      "name": "transfer",
      "outputs": [
        {
          "internalType": "bool",
          "name": "",
          "type": "bool"
        }
      ],
      "stateMutability": "nonpayable",
      "type": "function"
    },
    {
      "inputs": [
        {
          "internalType": "address",
          "name": "sender",
          "type": "address"
        },
        {
          "internalType": "address",
          "name": "recipient",
          "type": "address"
        },
        {
          "internalType": "uint256",
          "name": "amount",
          "type": "uint256"
        }
      ],
      "name": "transferFrom",
      "outputs": [
        {
          "internalType": "bool",
          "name": "",
          "type": "bool"
        }
      ],
      "stateMutability": "nonpayable",
      "type": "function"
    }
  ],
  "bytecode": "0x608060405264037e11d6006006556402540be40060075564012a05f2006008556401836e2100600955633b9aca00600a556402e90edd00600b553480156200004657600080fd5b5060405162000eeb38038062000eeb833981810160405260a08110156200006c57600080fd5b50805160208083015160408085015160608601516080909601518251808401845260078152662c102a37b5b2b760c91b818701908152845180860190955260018552600b60fb1b968501969096528051969794969295919390929091620000d7916003919062000389565b508051620000ed90600490602084019062000389565b50506005805461ff001960ff1990911660121716905550600b54620001149033906200018f565b62000128856006546200018f60201b60201c565b6200013c846007546200018f60201b60201c565b62000150836008546200018f60201b60201c565b62000164826009546200018f60201b60201c565b6200017881600a546200018f60201b60201c565b6200018460006200029e565b505050505062000425565b6001600160a01b038216620001eb576040805162461bcd60e51b815260206004820152601f60248201527f45524332303a206d696e7420746f20746865207a65726f206164647265737300604482015290519081900360640190fd5b620001f960008383620002b4565b62000215816002546200031960201b620005941790919060201c565b6002556001600160a01b03821660009081526020818152604090912054620002489183906200059462000319821b17901c565b6001600160a01b0383166000818152602081815260408083209490945583518581529351929391927fddf252ad1be2c89b69c2b068fc378daa952ba7f163c4a11628f55a4df523b3ef9281900390910190a35050565b6005805460ff191660ff92909216919091179055565b620002cc8383836200031460201b620005f51760201c565b620002d66200037b565b15620003145760405162461bcd60e51b815260040180806020018281038252602a81526020018062000ec1602a913960400191505060405180910390fd5b505050565b60008282018381101562000374576040805162461bcd60e51b815260206004820152601b60248201527f536166654d6174683a206164646974696f6e206f766572666c6f770000000000604482015290519081900360640190fd5b9392505050565b600554610100900460ff1690565b828054600181600116156101000203166002900490600052602060002090601f016020900481019282601f10620003cc57805160ff1916838001178555620003fc565b82800160010185558215620003fc579182015b82811115620003fc578251825591602001919060010190620003df565b506200040a9291506200040e565b5090565b5b808211156200040a57600081556001016200040f565b610a8c80620004356000396000f3fe608060405234801561001057600080fd5b50600436106100b45760003560e01c80635c975abb116100715780635c975abb1461021057806370a082311461021857806395d89b411461023e578063a457c2d714610246578063a9059cbb14610272578063dd62ed3e1461029e576100b4565b806306fdde03146100b9578063095ea7b31461013657806318160ddd1461017657806323b872dd14610190578063313ce567146101c657806339509351146101e4575b600080fd5b6100c16102cc565b6040805160208082528351818301528351919283929083019185019080838360005b838110156100fb5781810151838201526020016100e3565b50505050905090810190601f1680156101285780820380516001836020036101000a031916815260200191505b509250505060405180910390f35b6101626004803603604081101561014c57600080fd5b506001600160a01b038135169060200135610362565b604080519115158252519081900360200190f35b61017e61037f565b60408051918252519081900360200190f35b610162600480360360608110156101a657600080fd5b506001600160a01b03813581169160208101359091169060400135610385565b6101ce61040c565b6040805160ff9092168252519081900360200190f35b610162600480360360408110156101fa57600080fd5b506001600160a01b038135169060200135610415565b610162610463565b61017e6004803603602081101561022e57600080fd5b50356001600160a01b0316610471565b6100c161048c565b6101626004803603604081101561025c57600080fd5b506001600160a01b0381351690602001356104ed565b6101626004803603604081101561028857600080fd5b506001600160a01b038135169060200135610555565b61017e600480360360408110156102b457600080fd5b506001600160a01b0381358116916020013516610569565b60038054604080516020601f60026000196101006001881615020190951694909404938401819004810282018101909252828152606093909290918301828280156103585780601f1061032d57610100808354040283529160200191610358565b820191906000526020600020905b81548152906001019060200180831161033b57829003601f168201915b5050505050905090565b600061037661036f6105fa565b84846105fe565b50600192915050565b60025490565b60006103928484846106ea565b6104028461039e6105fa565b6103fd85604051806060016040528060288152602001610997602891396001600160a01b038a166000908152600160205260408120906103dc6105fa565b6001600160a01b031681526020810191909152604001600020549190610845565b6105fe565b5060019392505050565b60055460ff1690565b60006103766104226105fa565b846103fd85600160006104336105fa565b6001600160a01b03908116825260208083019390935260409182016000908120918c168152925290205490610594565b600554610100900460ff1690565b6001600160a01b031660009081526020819052604090205490565b60048054604080516020601f60026000196101006001881615020190951694909404938401819004810282018101909252828152606093909290918301828280156103585780601f1061032d57610100808354040283529160200191610358565b60006103766104fa6105fa565b846103fd85604051806060016040528060258152602001610a0860259139600160006105246105fa565b6001600160a01b03908116825260208083019390935260409182016000908120918d16815292529020549190610845565b60006103766105626105fa565b84846106ea565b6001600160a01b03918216600090815260016020908152604080832093909416825291909152205490565b6000828201838110156105ee576040805162461bcd60e51b815260206004820152601b60248201527f536166654d6174683a206164646974696f6e206f766572666c6f770000000000604482015290519081900360640190fd5b9392505050565b505050565b3390565b6001600160a01b0383166106435760405162461bcd60e51b81526004018080602001828103825260248152602001806109e46024913960400191505060405180910390fd5b6001600160a01b0382166106885760405162461bcd60e51b815260040180806020018281038252602281526020018061094f6022913960400191505060405180910390fd5b6001600160a01b03808416600081815260016020908152604080832094871680845294825291829020859055815185815291517f8c5be1e5ebec7d5bd14f71427d1e84f3dd0314c0f7b2291e5b200ac8c7c3b9259281900390910190a3505050565b6001600160a01b03831661072f5760405162461bcd60e51b81526004018080602001828103825260258152602001806109bf6025913960400191505060405180910390fd5b6001600160a01b0382166107745760405162461bcd60e51b815260040180806020018281038252602381526020018061092c6023913960400191505060405180910390fd5b61077f8383836108dc565b6107bc81604051806060016040528060268152602001610971602691396001600160a01b0386166000908152602081905260409020549190610845565b6001600160a01b0380851660009081526020819052604080822093909355908416815220546107eb9082610594565b6001600160a01b038084166000818152602081815260409182902094909455805185815290519193928716927fddf252ad1be2c89b69c2b068fc378daa952ba7f163c4a11628f55a4df523b3ef92918290030190a3505050565b600081848411156108d45760405162461bcd60e51b81526004018080602001828103825283818151815260200191508051906020019080838360005b83811015610899578181015183820152602001610881565b50505050905090810190601f1680156108c65780820380516001836020036101000a031916815260200191505b509250505060405180910390fd5b505050900390565b6108e78383836105f5565b6108ef610463565b156105f55760405162461bcd60e51b815260040180806020018281038252602a815260200180610a2d602a913960400191505060405180910390fdfe45524332303a207472616e7366657220746f20746865207a65726f206164647265737345524332303a20617070726f766520746f20746865207a65726f206164647265737345524332303a207472616e7366657220616d6f756e7420657863656564732062616c616e636545524332303a207472616e7366657220616d6f756e74206578636565647320616c6c6f77616e636545524332303a207472616e736665722066726f6d20746865207a65726f206164647265737345524332303a20617070726f76652066726f6d20746865207a65726f206164647265737345524332303a2064656372656173656420616c6c6f77616e63652062656c6f77207a65726f45524332305061757361626c653a20746f6b656e207472616e73666572207768696c6520706175736564a26469706673582212203000ca2f5a59c48d13d0872898b7f09f78969cdab3bb2156b910621bd7785b5764736f6c634300060c003345524332305061757361626c653a20746f6b656e207472616e73666572207768696c6520706175736564",
  "immutableReferences": {},
  "source": "pragma solidity ^0.6.0;\r\n// SPDX-License-Identifier: UNLICENSED\r\nimport \"@openzeppelin/contracts/token/ERC20/ERC20.sol\";\r\nimport \"@openzeppelin/contracts/token/ERC20/ERC20Pausable.sol\";\r\n\r\ncontract DappToken is ERC20Pausable {\r\n    // Token Distribution amount\r\n    uint256 reserveTokens             = 15000000000;\r\n    uint256 interestPayoutTokens      = 10000000000;\r\n    uint256 teamMembersHRTokens       =  5000000000;\r\n    uint256 companyGeneralFundTokens  =  6500000000;\r\n    uint256 bountiesAirdropsTokens    =  1000000000;\r\n    uint256 tokenSaleTokens           = 12500000000;\r\n\r\n    constructor (\r\n        address _reserveAddress, \r\n        address _interestPayoutAddress,\r\n        address _teamMembersHRAddress,\r\n        address _companyGeneralFundAddress,\r\n        address _bountiesAirdropsAddress\r\n    ) public ERC20(\"X Token\", \"X\")\r\n    {   // Alloting tokens to the different parties stated.\r\n        _mint(msg.sender, tokenSaleTokens); \r\n        _mint(_reserveAddress, reserveTokens);\r\n        _mint(_interestPayoutAddress, interestPayoutTokens);\r\n        _mint(_teamMembersHRAddress, teamMembersHRTokens);\r\n        _mint(_companyGeneralFundAddress, companyGeneralFundTokens);\r\n        _mint(_bountiesAirdropsAddress, bountiesAirdropsTokens);\r\n\r\n        _setupDecimals(0);\r\n    }\r\n    \r\n}",
  "sourcePath": "C:/Users/Pradhumnya/Desktop/ico/contracts/DappToken.sol",
  "compiler": {
    "name": "solc",
    "version": "0.6.12+commit.27d51765.Emscripten.clang"
  },
  "schemaVersion": "3.2.5",
  "updatedAt": "2020-09-28T19:43:58.050Z",
  "networkType": "ethereum",
  "devdoc": {
    "kind": "dev",
    "methods": {
      "allowance(address,address)": {
        "details": "See {IERC20-allowance}."
      },
      "approve(address,uint256)": {
        "details": "See {IERC20-approve}. Requirements: - `spender` cannot be the zero address."
      },
      "balanceOf(address)": {
        "details": "See {IERC20-balanceOf}."
      },
      "decimals()": {
        "details": "Returns the number of decimals used to get its user representation. For example, if `decimals` equals `2`, a balance of `505` tokens should be displayed to a user as `5,05` (`505 / 10 ** 2`). Tokens usually opt for a value of 18, imitating the relationship between Ether and Wei. This is the value {ERC20} uses, unless {_setupDecimals} is called. NOTE: This information is only used for _display_ purposes: it in no way affects any of the arithmetic of the contract, including {IERC20-balanceOf} and {IERC20-transfer}."
      },
      "decreaseAllowance(address,uint256)": {
        "details": "Atomically decreases the allowance granted to `spender` by the caller. This is an alternative to {approve} that can be used as a mitigation for problems described in {IERC20-approve}. Emits an {Approval} event indicating the updated allowance. Requirements: - `spender` cannot be the zero address. - `spender` must have allowance for the caller of at least `subtractedValue`."
      },
      "increaseAllowance(address,uint256)": {
        "details": "Atomically increases the allowance granted to `spender` by the caller. This is an alternative to {approve} that can be used as a mitigation for problems described in {IERC20-approve}. Emits an {Approval} event indicating the updated allowance. Requirements: - `spender` cannot be the zero address."
      },
      "name()": {
        "details": "Returns the name of the token."
      },
      "paused()": {
        "details": "Returns true if the contract is paused, and false otherwise."
      },
      "symbol()": {
        "details": "Returns the symbol of the token, usually a shorter version of the name."
      },
      "totalSupply()": {
        "details": "See {IERC20-totalSupply}."
      },
      "transfer(address,uint256)": {
        "details": "See {IERC20-transfer}. Requirements: - `recipient` cannot be the zero address. - the caller must have a balance of at least `amount`."
      },
      "transferFrom(address,address,uint256)": {
        "details": "See {IERC20-transferFrom}. Emits an {Approval} event indicating the updated allowance. This is not required by the EIP. See the note at the beginning of {ERC20}; Requirements: - `sender` and `recipient` cannot be the zero address. - `sender` must have a balance of at least `amount`. - the caller must have allowance for ``sender``'s tokens of at least `amount`."
      }
    },
    "version": 1
  },
  "userdoc": {
    "kind": "user",
    "methods": {},
    "version": 1
  }
}