{
  "contractName": "WhitelistedRole",
  "abi": [
    {
      "anonymous": false,
      "inputs": [
        {
          "indexed": true,
          "internalType": "address",
          "name": "account",
          "type": "address"
        }
      ],
      "name": "WhitelistAdminAdded",
      "type": "event"
    },
    {
      "anonymous": false,
      "inputs": [
        {
          "indexed": true,
          "internalType": "address",
          "name": "account",
          "type": "address"
        }
      ],
      "name": "WhitelistAdminRemoved",
      "type": "event"
    },
    {
      "anonymous": false,
      "inputs": [
        {
          "indexed": true,
          "internalType": "address",
          "name": "account",
          "type": "address"
        }
      ],
      "name": "WhitelistedAdded",
      "type": "event"
    },
    {
      "anonymous": false,
      "inputs": [
        {
          "indexed": true,
          "internalType": "address",
          "name": "account",
          "type": "address"
        }
      ],
      "name": "WhitelistedRemoved",
      "type": "event"
    },
    {
      "inputs": [
        {
          "internalType": "address",
          "name": "account",
          "type": "address"
        }
      ],
      "name": "addWhitelistAdmin",
      "outputs": [],
      "stateMutability": "nonpayable",
      "type": "function"
    },
    {
      "inputs": [
        {
          "internalType": "address",
          "name": "account",
          "type": "address"
        }
      ],
      "name": "isWhitelistAdmin",
      "outputs": [
        {
          "internalType": "bool",
          "name": "",
          "type": "bool"
        }
      ],
      "stateMutability": "view",
      "type": "function"
    },
    {
      "inputs": [],
      "name": "renounceWhitelistAdmin",
      "outputs": [],
      "stateMutability": "nonpayable",
      "type": "function"
    },
    {
      "inputs": [
        {
          "internalType": "address",
          "name": "account",
          "type": "address"
        }
      ],
      "name": "isWhitelisted",
      "outputs": [
        {
          "internalType": "bool",
          "name": "",
          "type": "bool"
        }
      ],
      "stateMutability": "view",
      "type": "function"
    },
    {
      "inputs": [
        {
          "internalType": "address",
          "name": "account",
          "type": "address"
        }
      ],
      "name": "addWhitelisted",
      "outputs": [],
      "stateMutability": "nonpayable",
      "type": "function"
    },
    {
      "inputs": [
        {
          "internalType": "address",
          "name": "account",
          "type": "address"
        }
      ],
      "name": "removeWhitelisted",
      "outputs": [],
      "stateMutability": "nonpayable",
      "type": "function"
    },
    {
      "inputs": [],
      "name": "renounceWhitelisted",
      "outputs": [],
      "stateMutability": "nonpayable",
      "type": "function"
    }
  ],
  "bytecode": "0x608060405234801561001057600080fd5b5061002161001c610026565b61002a565b610161565b3390565b61004281600061007960201b61029c1790919060201c565b6040516001600160a01b038216907f22380c05984257a1cb900161c713dd71d39e74820f1aea43bd3f1bdd2096129990600090a250565b61008382826100fa565b156100d5576040805162461bcd60e51b815260206004820152601f60248201527f526f6c65733a206163636f756e7420616c72656164792068617320726f6c6500604482015290519081900360640190fd5b6001600160a01b0316600090815260209190915260409020805460ff19166001179055565b60006001600160a01b0382166101415760405162461bcd60e51b81526004018080602001828103825260228152602001806107206022913960400191505060405180910390fd5b506001600160a01b03166000908152602091909152604090205460ff1690565b6105b0806101706000396000f3fe608060405234801561001057600080fd5b506004361061007d5760003560e01c80634c5a628c1161005b5780634c5a628c1461010a5780637362d9c814610112578063bb5f747b14610138578063d6cd94731461015e5761007d565b806310154bad14610082578063291d9549146100aa5780633af32abf146100d0575b600080fd5b6100a86004803603602081101561009857600080fd5b50356001600160a01b0316610166565b005b6100a8600480360360208110156100c057600080fd5b50356001600160a01b03166101bd565b6100f6600480360360208110156100e657600080fd5b50356001600160a01b031661020c565b604080519115158252519081900360200190f35b6100a861021f565b6100a86004803603602081101561012857600080fd5b50356001600160a01b0316610231565b6100f66004803603602081101561014e57600080fd5b50356001600160a01b0316610280565b6100a861028c565b61017661017161031d565b610280565b6101b15760405162461bcd60e51b815260040180806020018281038252604081526020018061053b6040913960400191505060405180910390fd5b6101ba81610321565b50565b6101c861017161031d565b6102035760405162461bcd60e51b815260040180806020018281038252604081526020018061053b6040913960400191505060405180910390fd5b6101ba81610363565b60006102196001836103a5565b92915050565b61022f61022a61031d565b61040c565b565b61023c61017161031d565b6102775760405162461bcd60e51b815260040180806020018281038252604081526020018061053b6040913960400191505060405180910390fd5b6101ba8161044e565b600061021981836103a5565b61022f61029761031d565b610363565b6102a682826103a5565b156102f8576040805162461bcd60e51b815260206004820152601f60248201527f526f6c65733a206163636f756e7420616c72656164792068617320726f6c6500604482015290519081900360640190fd5b6001600160a01b0316600090815260209190915260409020805460ff19166001179055565b3390565b61032c60018261029c565b6040516001600160a01b038216907fee1504a83b6d4a361f4c1dc78ab59bfa30d6a3b6612c403e86bb01ef2984295f90600090a250565b61036e600182610490565b6040516001600160a01b038216907f270d9b30cf5b0793bbfd54c9d5b94aeb49462b8148399000265144a8722da6b690600090a250565b60006001600160a01b0382166103ec5760405162461bcd60e51b81526004018080602001828103825260228152602001806105196022913960400191505060405180910390fd5b506001600160a01b03166000908152602091909152604090205460ff1690565b610417600082610490565b6040516001600160a01b038216907f0a8eb35e5ca14b3d6f28e4abf2f128dbab231a58b56e89beb5d636115001e16590600090a250565b61045960008261029c565b6040516001600160a01b038216907f22380c05984257a1cb900161c713dd71d39e74820f1aea43bd3f1bdd2096129990600090a250565b61049a82826103a5565b6104d55760405162461bcd60e51b81526004018080602001828103825260218152602001806104f86021913960400191505060405180910390fd5b6001600160a01b0316600090815260209190915260409020805460ff1916905556fe526f6c65733a206163636f756e7420646f6573206e6f74206861766520726f6c65526f6c65733a206163636f756e7420697320746865207a65726f206164647265737357686974656c69737441646d696e526f6c653a2063616c6c657220646f6573206e6f742068617665207468652057686974656c69737441646d696e20726f6c65a2646970667358221220e48022b7ab4a00233bec3900c1455eb9b1457bb67f359229c4fef9499a5c65c964736f6c634300060c0033526f6c65733a206163636f756e7420697320746865207a65726f2061646472657373",
  "immutableReferences": {},
  "source": "pragma solidity ^0.6.0;\r\n// SPDX-License-Identifier: UNLICENSED\r\nimport \"@openzeppelin/contracts/GSN/Context.sol\";\r\nimport \"./Roles.sol\";\r\nimport \"./WhitelistAdminRole.sol\";\r\n\r\n/**\r\n * @title WhitelistedRole\r\n * @dev Whitelisted accounts have been approved by a WhitelistAdmin to perform certain actions (e.g. participate in a\r\n * crowdsale). This role is special in that the only accounts that can add it are WhitelistAdmins (who can also remove\r\n * it), and not Whitelisteds themselves.\r\n */\r\ncontract WhitelistedRole is Context, WhitelistAdminRole {\r\n    using Roles for Roles.Role;\r\n\r\n    event WhitelistedAdded(address indexed account);\r\n    event WhitelistedRemoved(address indexed account);\r\n\r\n    Roles.Role private _whitelisteds;\r\n\r\n    modifier onlyWhitelisted() {\r\n        require(isWhitelisted(_msgSender()), \"WhitelistedRole: caller does not have the Whitelisted role\");\r\n        _;\r\n    }\r\n\r\n    function isWhitelisted(address account) public view returns (bool) {\r\n        return _whitelisteds.has(account);\r\n    }\r\n\r\n    function addWhitelisted(address account) public onlyWhitelistAdmin {\r\n        _addWhitelisted(account);\r\n    }\r\n\r\n    function removeWhitelisted(address account) public onlyWhitelistAdmin {\r\n        _removeWhitelisted(account);\r\n    }\r\n\r\n    function renounceWhitelisted() public {\r\n        _removeWhitelisted(_msgSender());\r\n    }\r\n\r\n    function _addWhitelisted(address account) internal {\r\n        _whitelisteds.add(account);\r\n        emit WhitelistedAdded(account);\r\n    }\r\n\r\n    function _removeWhitelisted(address account) internal {\r\n        _whitelisteds.remove(account);\r\n        emit WhitelistedRemoved(account);\r\n    }\r\n}",
  "sourcePath": "C:\\Users\\Pradhumnya\\Desktop\\ico\\contracts\\supp_contracts\\WhitelistedRole.sol",
  "compiler": {
    "name": "solc",
    "version": "0.6.12+commit.27d51765.Emscripten.clang"
  },
  "schemaVersion": "3.2.5",
  "updatedAt": "2020-09-28T19:43:52.429Z",
  "devdoc": {
    "details": "Whitelisted accounts have been approved by a WhitelistAdmin to perform certain actions (e.g. participate in a crowdsale). This role is special in that the only accounts that can add it are WhitelistAdmins (who can also remove it), and not Whitelisteds themselves.",
    "kind": "dev",
    "methods": {},
    "title": "WhitelistedRole",
    "version": 1
  },
  "userdoc": {
    "kind": "user",
    "methods": {},
    "version": 1
  }
}